{
  "_format": "hh-sol-artifact-1",
  "contractName": "Ids",
  "sourceName": "contracts/TestIds.sol",
  "abi": [
    {
      "inputs": [
        {
          "internalType": "uint256",
          "name": "_minFloor",
          "type": "uint256"
        },
        {
          "internalType": "uint256",
          "name": "_maxFloor",
          "type": "uint256"
        }
      ],
      "name": "changeFloors",
      "outputs": [],
      "stateMutability": "nonpayable",
      "type": "function"
    },
    {
      "inputs": [],
      "name": "clearIds",
      "outputs": [],
      "stateMutability": "nonpayable",
      "type": "function"
    },
    {
      "inputs": [],
      "name": "getAllIds",
      "outputs": [
        {
          "internalType": "uint256[]",
          "name": "",
          "type": "uint256[]"
        }
      ],
      "stateMutability": "nonpayable",
      "type": "function"
    },
    {
      "inputs": [
        {
          "internalType": "string",
          "name": "numString",
          "type": "string"
        }
      ],
      "name": "st2num",
      "outputs": [
        {
          "internalType": "uint256",
          "name": "",
          "type": "uint256"
        }
      ],
      "stateMutability": "pure",
      "type": "function"
    },
    {
      "inputs": [
        {
          "internalType": "uint256",
          "name": "_i",
          "type": "uint256"
        }
      ],
      "name": "uint2str",
      "outputs": [
        {
          "internalType": "string",
          "name": "_uintAsString",
          "type": "string"
        }
      ],
      "stateMutability": "pure",
      "type": "function"
    },
    {
      "inputs": [],
      "name": "viewArray",
      "outputs": [
        {
          "internalType": "uint256[]",
          "name": "",
          "type": "uint256[]"
        }
      ],
      "stateMutability": "view",
      "type": "function"
    }
  ],
  "bytecode": "0x608060405234801561001057600080fd5b50610c2e806100206000396000f3fe608060405234801561001057600080fd5b50600436106100615760003560e01c80625f92a71461006657806347388cae1461008457806379cd90551461009f578063aaa44e5c146100c0578063c60b37d0146100c8578063f76f950e146100d0575b600080fd5b61006e6100f0565b60405161007b9190610775565b60405180910390f35b61009d6100923660046107b9565b600191909155600255565b005b6100b26100ad3660046107f1565b610148565b60405190815260200161007b565b61006e6101ec565b61009d610605565b6100e36100de3660046108a2565b610612565b60405161007b91906108eb565b6060600080548060200260200160405190810160405280929190818152602001828054801561013e57602002820191906000526020600020905b81548152602001906001019080831161012a575b5050505050905090565b60008082815b81518110156101e35760008183516101669190610934565b9050600083838151811061017c5761017c61094b565b01602001516001600160f81b03198116915060f81c600061019e603083610934565b90506101ab600185610934565b6101b690600a610a47565b6101c09082610a5a565b6101ca9088610a79565b96505050505080806101db90610a91565b91505061014e565b50909392505050565b6001546060905b60025481116105b0576016606382111561020b575060085b60015b81811161059b578260028282158015906102285750600a83105b1561034b57604080518082019091526002815261030360f41b6020820152600a821080156102565750600082115b156102db576040805180820190915260018152600360fc1b6020820152600061027e85610612565b8361028888610612565b8461029288610612565b6040516020016102a6959493929190610aac565b604051602081830303815290604052905060006102c282610148565b8154600181018355600092835260209092209091015550505b60098211156103495760006102ef84610612565b826102f987610612565b61030286610612565b6040516020016103159493929190610b17565b6040516020818303038152906040529050600061033182610148565b81546001810183556000928352602090922090910155505b505b600a8311801561035b5750606483105b1561047d576040805180820190915260018152600360fc1b6020820152600a821080156103885750600082115b1561040d576040805180820190915260018152600360fc1b602082015260006103b085610612565b836103ba88610612565b846103c488610612565b6040516020016103d8959493929190610aac565b604051602081830303815290604052905060006103f482610148565b8154600181018355600092835260209092209091015550505b600982111561047b57600061042184610612565b8261042b87610612565b61043486610612565b6040516020016104479493929190610b17565b6040516020818303038152906040529050600061046382610148565b81546001810183556000928352602090922090910155505b505b606483111561058557600a811080156104965750600081115b15610519576040805180820190915260018152600360fc1b602082015260006104be84610612565b6104c786610612565b836104d186610612565b6040516020016104e49493929190610b17565b6040516020818303038152906040529050600061050082610148565b8154600181018355600092835260209092209091015550505b600981111561058557600061052d83610612565b61053685610612565b61053f84610612565b60405160200161055193929190610b6e565b6040516020818303038152906040529050600061056d82610148565b81546001810183556000928352602090922090910155505b505050808061059390610a91565b91505061020e565b505080806105a890610a91565b9150506101f3565b50600080548060200260200160405190810160405280929190818152602001828054801561013e576020028201919060005260206000209081548152602001906001019080831161012a575050505050905090565b61061060008061073b565b565b6060816106365750506040805180820190915260018152600360fc1b602082015290565b8160005b8115610660578061064a81610a91565b91506106599050600a83610bb1565b915061063a565b60008167ffffffffffffffff81111561067b5761067b6107db565b6040519080825280601f01601f1916602001820160405280156106a5576020820181803683370190505b509050815b8515610732576106bb600182610934565b905060006106ca600a88610bb1565b6106d590600a610a5a565b6106df9088610934565b6106ea906030610bd3565b905060008160f81b9050808484815181106107075761070761094b565b60200101906001600160f81b031916908160001a905350610729600a89610bb1565b975050506106aa565b50949350505050565b5080546000825590600052602060002090810190610759919061075c565b50565b5b80821115610771576000815560010161075d565b5090565b6020808252825182820181905260009190848201906040850190845b818110156107ad57835183529284019291840191600101610791565b50909695505050505050565b600080604083850312156107cc57600080fd5b50508035926020909101359150565b634e487b7160e01b600052604160045260246000fd5b60006020828403121561080357600080fd5b813567ffffffffffffffff8082111561081b57600080fd5b818401915084601f83011261082f57600080fd5b813581811115610841576108416107db565b604051601f8201601f19908116603f01168101908382118183101715610869576108696107db565b8160405282815287602084870101111561088257600080fd5b826020860160208301376000928101602001929092525095945050505050565b6000602082840312156108b457600080fd5b5035919050565b60005b838110156108d65781810151838201526020016108be565b838111156108e5576000848401525b50505050565b602081526000825180602084015261090a8160408501602087016108bb565b601f01601f19169190910160400192915050565b634e487b7160e01b600052601160045260246000fd5b6000828210156109465761094661091e565b500390565b634e487b7160e01b600052603260045260246000fd5b600181815b8085111561099c5781600019048211156109825761098261091e565b8085161561098f57918102915b93841c9390800290610966565b509250929050565b6000826109b357506001610a41565b816109c057506000610a41565b81600181146109d657600281146109e0576109fc565b6001915050610a41565b60ff8411156109f1576109f161091e565b50506001821b610a41565b5060208310610133831016604e8410600b8410161715610a1f575081810a610a41565b610a298383610961565b8060001904821115610a3d57610a3d61091e565b0290505b92915050565b6000610a5383836109a4565b9392505050565b6000816000190483118215151615610a7457610a7461091e565b500290565b60008219821115610a8c57610a8c61091e565b500190565b6000600019821415610aa557610aa561091e565b5060010190565b60008651610abe818460208b016108bb565b865190830190610ad2818360208b016108bb565b8651910190610ae5818360208a016108bb565b8551910190610af88183602089016108bb565b8451910190610b0b8183602088016108bb565b01979650505050505050565b60008551610b29818460208a016108bb565b855190830190610b3d818360208a016108bb565b8551910190610b508183602089016108bb565b8451910190610b638183602088016108bb565b019695505050505050565b60008451610b808184602089016108bb565b845190830190610b948183602089016108bb565b8451910190610ba78183602088016108bb565b0195945050505050565b600082610bce57634e487b7160e01b600052601260045260246000fd5b500490565b600060ff821660ff84168060ff03821115610bf057610bf061091e565b01939250505056fea264697066735822122008b479f8cfd0ab17592d8ffaa30facef0dfbe13bfcdcb39848990c1876ccc5bb64736f6c63430008090033",
  "linkReferences": {},
  "deployedLinkReferences": {}
}