{
  "_format": "hh-sol-artifact-1",
  "contractName": "EthereumWorlds",
  "sourceName": "contracts/EthereumWorlds.sol",
  "abi": [
    {
      "inputs": [
        {
          "internalType": "address",
          "name": "distributor",
          "type": "address"
        }
      ],
      "stateMutability": "nonpayable",
      "type": "constructor"
    },
    {
      "anonymous": false,
      "inputs": [
        {
          "indexed": true,
          "internalType": "address",
          "name": "owner",
          "type": "address"
        },
        {
          "indexed": true,
          "internalType": "address",
          "name": "spender",
          "type": "address"
        },
        {
          "indexed": false,
          "internalType": "uint256",
          "name": "value",
          "type": "uint256"
        }
      ],
      "name": "Approval",
      "type": "event"
    },
    {
      "anonymous": false,
      "inputs": [
        {
          "indexed": true,
          "internalType": "address",
          "name": "previousOwner",
          "type": "address"
        },
        {
          "indexed": true,
          "internalType": "address",
          "name": "newOwner",
          "type": "address"
        }
      ],
      "name": "OwnershipTransferred",
      "type": "event"
    },
    {
      "anonymous": false,
      "inputs": [
        {
          "indexed": true,
          "internalType": "address",
          "name": "from",
          "type": "address"
        },
        {
          "indexed": true,
          "internalType": "address",
          "name": "to",
          "type": "address"
        },
        {
          "indexed": false,
          "internalType": "uint256",
          "name": "value",
          "type": "uint256"
        }
      ],
      "name": "Transfer",
      "type": "event"
    },
    {
      "inputs": [
        {
          "internalType": "address",
          "name": "owner",
          "type": "address"
        },
        {
          "internalType": "address",
          "name": "spender",
          "type": "address"
        }
      ],
      "name": "allowance",
      "outputs": [
        {
          "internalType": "uint256",
          "name": "",
          "type": "uint256"
        }
      ],
      "stateMutability": "view",
      "type": "function"
    },
    {
      "inputs": [
        {
          "internalType": "address",
          "name": "spender",
          "type": "address"
        },
        {
          "internalType": "uint256",
          "name": "amount",
          "type": "uint256"
        }
      ],
      "name": "approve",
      "outputs": [
        {
          "internalType": "bool",
          "name": "",
          "type": "bool"
        }
      ],
      "stateMutability": "nonpayable",
      "type": "function"
    },
    {
      "inputs": [
        {
          "internalType": "address",
          "name": "account",
          "type": "address"
        }
      ],
      "name": "balanceOf",
      "outputs": [
        {
          "internalType": "uint256",
          "name": "",
          "type": "uint256"
        }
      ],
      "stateMutability": "view",
      "type": "function"
    },
    {
      "inputs": [],
      "name": "cap",
      "outputs": [
        {
          "internalType": "uint256",
          "name": "",
          "type": "uint256"
        }
      ],
      "stateMutability": "view",
      "type": "function"
    },
    {
      "inputs": [],
      "name": "decimals",
      "outputs": [
        {
          "internalType": "uint8",
          "name": "",
          "type": "uint8"
        }
      ],
      "stateMutability": "view",
      "type": "function"
    },
    {
      "inputs": [
        {
          "internalType": "address",
          "name": "spender",
          "type": "address"
        },
        {
          "internalType": "uint256",
          "name": "subtractedValue",
          "type": "uint256"
        }
      ],
      "name": "decreaseAllowance",
      "outputs": [
        {
          "internalType": "bool",
          "name": "",
          "type": "bool"
        }
      ],
      "stateMutability": "nonpayable",
      "type": "function"
    },
    {
      "inputs": [
        {
          "internalType": "address",
          "name": "spender",
          "type": "address"
        },
        {
          "internalType": "uint256",
          "name": "addedValue",
          "type": "uint256"
        }
      ],
      "name": "increaseAllowance",
      "outputs": [
        {
          "internalType": "bool",
          "name": "",
          "type": "bool"
        }
      ],
      "stateMutability": "nonpayable",
      "type": "function"
    },
    {
      "inputs": [],
      "name": "name",
      "outputs": [
        {
          "internalType": "string",
          "name": "",
          "type": "string"
        }
      ],
      "stateMutability": "view",
      "type": "function"
    },
    {
      "inputs": [],
      "name": "owner",
      "outputs": [
        {
          "internalType": "address",
          "name": "",
          "type": "address"
        }
      ],
      "stateMutability": "view",
      "type": "function"
    },
    {
      "inputs": [],
      "name": "renounceOwnership",
      "outputs": [],
      "stateMutability": "nonpayable",
      "type": "function"
    },
    {
      "inputs": [],
      "name": "symbol",
      "outputs": [
        {
          "internalType": "string",
          "name": "",
          "type": "string"
        }
      ],
      "stateMutability": "view",
      "type": "function"
    },
    {
      "inputs": [],
      "name": "totalSupply",
      "outputs": [
        {
          "internalType": "uint256",
          "name": "",
          "type": "uint256"
        }
      ],
      "stateMutability": "view",
      "type": "function"
    },
    {
      "inputs": [
        {
          "internalType": "address",
          "name": "recipient",
          "type": "address"
        },
        {
          "internalType": "uint256",
          "name": "amount",
          "type": "uint256"
        }
      ],
      "name": "transfer",
      "outputs": [
        {
          "internalType": "bool",
          "name": "",
          "type": "bool"
        }
      ],
      "stateMutability": "nonpayable",
      "type": "function"
    },
    {
      "inputs": [
        {
          "internalType": "address",
          "name": "sender",
          "type": "address"
        },
        {
          "internalType": "address",
          "name": "recipient",
          "type": "address"
        },
        {
          "internalType": "uint256",
          "name": "amount",
          "type": "uint256"
        }
      ],
      "name": "transferFrom",
      "outputs": [
        {
          "internalType": "bool",
          "name": "",
          "type": "bool"
        }
      ],
      "stateMutability": "nonpayable",
      "type": "function"
    },
    {
      "inputs": [
        {
          "internalType": "address",
          "name": "newOwner",
          "type": "address"
        }
      ],
      "name": "transferOwnership",
      "outputs": [],
      "stateMutability": "nonpayable",
      "type": "function"
    }
  ],
  "bytecode": "0x60a06040523480156200001157600080fd5b50604051620010d9380380620010d98339810160408190526200003491620003b9565b604080518082018252600f81526e457468657265756d20576f726c647360881b602080830191825283518085019094526003808552622a2ba960e91b9185019190915282516b033b2e3c9fd0803ce8000000949262000094929162000313565b508051620000aa90600490602084019062000313565b50505060008111620001035760405162461bcd60e51b815260206004820152601560248201527f45524332304361707065643a206361702069732030000000000000000000000060448201526064015b60405180910390fd5b60805262000111336200012d565b62000126816200012060805190565b6200017f565b506200044f565b600580546001600160a01b038381166001600160a01b0319831681179093556040519116919082907f8be0079c531659141344cd1fd0a4f28419497f9722a3daafe3b4186f6b6457e090600090a35050565b6200019682826200019a60201b620005ef1760201c565b5050565b60805181620001b36200022660201b620003181760201c565b620001bf9190620003eb565b11156200020f5760405162461bcd60e51b815260206004820152601960248201527f45524332304361707065643a20636170206578636565646564000000000000006044820152606401620000fa565b6200019682826200022c60201b620006801760201c565b60025490565b6001600160a01b038216620002845760405162461bcd60e51b815260206004820152601f60248201527f45524332303a206d696e7420746f20746865207a65726f2061646472657373006044820152606401620000fa565b8060026000828254620002989190620003eb565b90915550506001600160a01b03821660009081526020819052604081208054839290620002c7908490620003eb565b90915550506040518181526001600160a01b038316906000907fddf252ad1be2c89b69c2b068fc378daa952ba7f163c4a11628f55a4df523b3ef9060200160405180910390a362000196565b828054620003219062000412565b90600052602060002090601f01602090048101928262000345576000855562000390565b82601f106200036057805160ff191683800117855562000390565b8280016001018555821562000390579182015b828111156200039057825182559160200191906001019062000373565b506200039e929150620003a2565b5090565b5b808211156200039e5760008155600101620003a3565b600060208284031215620003cc57600080fd5b81516001600160a01b0381168114620003e457600080fd5b9392505050565b600082198211156200040d57634e487b7160e01b600052601160045260246000fd5b500190565b600181811c908216806200042757607f821691505b602082108114156200044957634e487b7160e01b600052602260045260246000fd5b50919050565b608051610c67620004726000396000818161017101526105f10152610c676000f3fe608060405234801561001057600080fd5b50600436106100f55760003560e01c806370a0823111610097578063a457c2d711610066578063a457c2d7146101fe578063a9059cbb14610211578063dd62ed3e14610224578063f2fde38b1461025d57600080fd5b806370a08231146101a8578063715018a6146101d15780638da5cb5b146101db57806395d89b41146101f657600080fd5b806323b872dd116100d357806323b872dd1461014d578063313ce56714610160578063355274ea1461016f578063395093511461019557600080fd5b806306fdde03146100fa578063095ea7b31461011857806318160ddd1461013b575b600080fd5b610102610270565b60405161010f9190610aa4565b60405180910390f35b61012b610126366004610b15565b610302565b604051901515815260200161010f565b6002545b60405190815260200161010f565b61012b61015b366004610b3f565b61031e565b6040516012815260200161010f565b7f000000000000000000000000000000000000000000000000000000000000000061013f565b61012b6101a3366004610b15565b6103cd565b61013f6101b6366004610b7b565b6001600160a01b031660009081526020819052604090205490565b6101d9610409565b005b6005546040516001600160a01b03909116815260200161010f565b61010261046f565b61012b61020c366004610b15565b61047e565b61012b61021f366004610b15565b610517565b61013f610232366004610b9d565b6001600160a01b03918216600090815260016020908152604080832093909416825291909152205490565b6101d961026b366004610b7b565b610524565b60606003805461027f90610bd0565b80601f01602080910402602001604051908101604052809291908181526020018280546102ab90610bd0565b80156102f85780601f106102cd576101008083540402835291602001916102f8565b820191906000526020600020905b8154815290600101906020018083116102db57829003601f168201915b5050505050905090565b600061030f33848461075f565b50600192915050565b60025490565b600061032b848484610883565b6001600160a01b0384166000908152600160209081526040808320338452909152902054828110156103b55760405162461bcd60e51b815260206004820152602860248201527f45524332303a207472616e7366657220616d6f756e74206578636565647320616044820152676c6c6f77616e636560c01b60648201526084015b60405180910390fd5b6103c2853385840361075f565b506001949350505050565b3360008181526001602090815260408083206001600160a01b0387168452909152812054909161030f918590610404908690610c0b565b61075f565b6005546001600160a01b031633146104635760405162461bcd60e51b815260206004820181905260248201527f4f776e61626c653a2063616c6c6572206973206e6f7420746865206f776e657260448201526064016103ac565b61046d6000610a52565b565b60606004805461027f90610bd0565b3360009081526001602090815260408083206001600160a01b0386168452909152812054828110156105005760405162461bcd60e51b815260206004820152602560248201527f45524332303a2064656372656173656420616c6c6f77616e63652062656c6f77604482015264207a65726f60d81b60648201526084016103ac565b61050d338585840361075f565b5060019392505050565b600061030f338484610883565b6005546001600160a01b0316331461057e5760405162461bcd60e51b815260206004820181905260248201527f4f776e61626c653a2063616c6c6572206973206e6f7420746865206f776e657260448201526064016103ac565b6001600160a01b0381166105e35760405162461bcd60e51b815260206004820152602660248201527f4f776e61626c653a206e6577206f776e657220697320746865207a65726f206160448201526564647265737360d01b60648201526084016103ac565b6105ec81610a52565b50565b7f00000000000000000000000000000000000000000000000000000000000000008161061a60025490565b6106249190610c0b565b11156106725760405162461bcd60e51b815260206004820152601960248201527f45524332304361707065643a206361702065786365656465640000000000000060448201526064016103ac565b61067c8282610680565b5050565b6001600160a01b0382166106d65760405162461bcd60e51b815260206004820152601f60248201527f45524332303a206d696e7420746f20746865207a65726f20616464726573730060448201526064016103ac565b80600260008282546106e89190610c0b565b90915550506001600160a01b03821660009081526020819052604081208054839290610715908490610c0b565b90915550506040518181526001600160a01b038316906000907fddf252ad1be2c89b69c2b068fc378daa952ba7f163c4a11628f55a4df523b3ef9060200160405180910390a35050565b6001600160a01b0383166107c15760405162461bcd60e51b8152602060048201526024808201527f45524332303a20617070726f76652066726f6d20746865207a65726f206164646044820152637265737360e01b60648201526084016103ac565b6001600160a01b0382166108225760405162461bcd60e51b815260206004820152602260248201527f45524332303a20617070726f766520746f20746865207a65726f206164647265604482015261737360f01b60648201526084016103ac565b6001600160a01b0383811660008181526001602090815260408083209487168084529482529182902085905590518481527f8c5be1e5ebec7d5bd14f71427d1e84f3dd0314c0f7b2291e5b200ac8c7c3b925910160405180910390a3505050565b6001600160a01b0383166108e75760405162461bcd60e51b815260206004820152602560248201527f45524332303a207472616e736665722066726f6d20746865207a65726f206164604482015264647265737360d81b60648201526084016103ac565b6001600160a01b0382166109495760405162461bcd60e51b815260206004820152602360248201527f45524332303a207472616e7366657220746f20746865207a65726f206164647260448201526265737360e81b60648201526084016103ac565b6001600160a01b038316600090815260208190526040902054818110156109c15760405162461bcd60e51b815260206004820152602660248201527f45524332303a207472616e7366657220616d6f756e7420657863656564732062604482015265616c616e636560d01b60648201526084016103ac565b6001600160a01b038085166000908152602081905260408082208585039055918516815290812080548492906109f8908490610c0b565b92505081905550826001600160a01b0316846001600160a01b03167fddf252ad1be2c89b69c2b068fc378daa952ba7f163c4a11628f55a4df523b3ef84604051610a4491815260200190565b60405180910390a350505050565b600580546001600160a01b038381166001600160a01b0319831681179093556040519116919082907f8be0079c531659141344cd1fd0a4f28419497f9722a3daafe3b4186f6b6457e090600090a35050565b600060208083528351808285015260005b81811015610ad157858101830151858201604001528201610ab5565b81811115610ae3576000604083870101525b50601f01601f1916929092016040019392505050565b80356001600160a01b0381168114610b1057600080fd5b919050565b60008060408385031215610b2857600080fd5b610b3183610af9565b946020939093013593505050565b600080600060608486031215610b5457600080fd5b610b5d84610af9565b9250610b6b60208501610af9565b9150604084013590509250925092565b600060208284031215610b8d57600080fd5b610b9682610af9565b9392505050565b60008060408385031215610bb057600080fd5b610bb983610af9565b9150610bc760208401610af9565b90509250929050565b600181811c90821680610be457607f821691505b60208210811415610c0557634e487b7160e01b600052602260045260246000fd5b50919050565b60008219821115610c2c57634e487b7160e01b600052601160045260246000fd5b50019056fea26469706673582212200fde59cea83c28241a17339f1372a919b7d697c7afc28ca2c769c1792ecfd30c64736f6c63430008090033",
  "linkReferences": {},
  "deployedLinkReferences": {}
}