{
  "_format": "hh-sol-artifact-1",
  "contractName": "TowersProxy",
  "sourceName": "contracts/TowersProxy.sol",
  "abi": [
    {
      "inputs": [
        {
          "internalType": "address",
          "name": "_towersContract",
          "type": "address"
        },
        {
          "internalType": "address",
          "name": "_serviceAddress",
          "type": "address"
        }
      ],
      "stateMutability": "nonpayable",
      "type": "constructor"
    },
    {
      "anonymous": false,
      "inputs": [
        {
          "indexed": true,
          "internalType": "address",
          "name": "previousOwner",
          "type": "address"
        },
        {
          "indexed": true,
          "internalType": "address",
          "name": "newOwner",
          "type": "address"
        }
      ],
      "name": "OwnershipTransferred",
      "type": "event"
    },
    {
      "inputs": [],
      "name": "MAX_ITEMS_IN_TOWER",
      "outputs": [
        {
          "internalType": "uint256",
          "name": "",
          "type": "uint256"
        }
      ],
      "stateMutability": "view",
      "type": "function"
    },
    {
      "inputs": [],
      "name": "TowersContract",
      "outputs": [
        {
          "internalType": "address",
          "name": "",
          "type": "address"
        }
      ],
      "stateMutability": "view",
      "type": "function"
    },
    {
      "inputs": [
        {
          "internalType": "uint256",
          "name": "_stage",
          "type": "uint256"
        },
        {
          "internalType": "bytes32",
          "name": "_role",
          "type": "bytes32"
        }
      ],
      "name": "addRoleForStage",
      "outputs": [],
      "stateMutability": "nonpayable",
      "type": "function"
    },
    {
      "inputs": [
        {
          "internalType": "address",
          "name": "_serviceAddress",
          "type": "address"
        }
      ],
      "name": "changeServiceAddress",
      "outputs": [],
      "stateMutability": "nonpayable",
      "type": "function"
    },
    {
      "inputs": [],
      "name": "currentStage",
      "outputs": [
        {
          "internalType": "uint256",
          "name": "",
          "type": "uint256"
        }
      ],
      "stateMutability": "view",
      "type": "function"
    },
    {
      "inputs": [
        {
          "internalType": "uint256",
          "name": "",
          "type": "uint256"
        }
      ],
      "name": "currentStageRole",
      "outputs": [
        {
          "internalType": "bytes32",
          "name": "",
          "type": "bytes32"
        }
      ],
      "stateMutability": "view",
      "type": "function"
    },
    {
      "inputs": [],
      "name": "disableContract",
      "outputs": [],
      "stateMutability": "nonpayable",
      "type": "function"
    },
    {
      "inputs": [],
      "name": "enableContract",
      "outputs": [],
      "stateMutability": "nonpayable",
      "type": "function"
    },
    {
      "inputs": [],
      "name": "getChainId",
      "outputs": [
        {
          "internalType": "uint256",
          "name": "",
          "type": "uint256"
        }
      ],
      "stateMutability": "view",
      "type": "function"
    },
    {
      "inputs": [],
      "name": "isActive",
      "outputs": [
        {
          "internalType": "bool",
          "name": "",
          "type": "bool"
        }
      ],
      "stateMutability": "view",
      "type": "function"
    },
    {
      "inputs": [],
      "name": "owner",
      "outputs": [
        {
          "internalType": "address",
          "name": "",
          "type": "address"
        }
      ],
      "stateMutability": "view",
      "type": "function"
    },
    {
      "inputs": [
        {
          "internalType": "address",
          "name": "",
          "type": "address"
        }
      ],
      "name": "ownerOfToken",
      "outputs": [
        {
          "internalType": "bool",
          "name": "",
          "type": "bool"
        }
      ],
      "stateMutability": "view",
      "type": "function"
    },
    {
      "inputs": [
        {
          "components": [
            {
              "internalType": "uint256",
              "name": "tokenId",
              "type": "uint256"
            },
            {
              "internalType": "bytes",
              "name": "signature",
              "type": "bytes"
            }
          ],
          "internalType": "struct TowersProxy.EthereumTowerVoucher",
          "name": "ethereumtowervoucher",
          "type": "tuple"
        }
      ],
      "name": "redeem",
      "outputs": [
        {
          "internalType": "uint256",
          "name": "",
          "type": "uint256"
        }
      ],
      "stateMutability": "payable",
      "type": "function"
    },
    {
      "inputs": [],
      "name": "renounceOwnership",
      "outputs": [],
      "stateMutability": "nonpayable",
      "type": "function"
    },
    {
      "inputs": [
        {
          "internalType": "address",
          "name": "_user",
          "type": "address"
        }
      ],
      "name": "resetOwnerOf",
      "outputs": [],
      "stateMutability": "nonpayable",
      "type": "function"
    },
    {
      "inputs": [
        {
          "internalType": "uint256",
          "name": "_count",
          "type": "uint256"
        }
      ],
      "name": "resetTokenCount",
      "outputs": [],
      "stateMutability": "nonpayable",
      "type": "function"
    },
    {
      "inputs": [],
      "name": "serviceAddress",
      "outputs": [
        {
          "internalType": "address",
          "name": "",
          "type": "address"
        }
      ],
      "stateMutability": "view",
      "type": "function"
    },
    {
      "inputs": [],
      "name": "tokenCount",
      "outputs": [
        {
          "internalType": "uint256",
          "name": "",
          "type": "uint256"
        }
      ],
      "stateMutability": "view",
      "type": "function"
    },
    {
      "inputs": [
        {
          "internalType": "address",
          "name": "newOwner",
          "type": "address"
        }
      ],
      "name": "transferOwnership",
      "outputs": [],
      "stateMutability": "nonpayable",
      "type": "function"
    },
    {
      "inputs": [
        {
          "internalType": "uint256",
          "name": "amount",
          "type": "uint256"
        }
      ],
      "name": "withdraw",
      "outputs": [],
      "stateMutability": "nonpayable",
      "type": "function"
    },
    {
      "inputs": [],
      "name": "withdrawableBalance",
      "outputs": [
        {
          "internalType": "uint256",
          "name": "",
          "type": "uint256"
        }
      ],
      "stateMutability": "view",
      "type": "function"
    }
  ],
  "bytecode": "0x6101406040526108926002556003805460ff1916600117905560226006553480156200002a57600080fd5b50604051620016f7380380620016f78339810160408190526200004d9162000204565b604080518082018252600d81526c22ba3432b932bab6aa37bbb2b960991b6020808301918252835180850190945260018452603160f81b908401528151902060e08190527fc89efdaa54c0f20c7adf612882df0950f5a951637e0307cdcb4c672f298b8bc66101008190524660a0529192917f8b73c3c69bb8fe3d512ecc4cf759cc79239f7b179b0ffacaa9a75d522b39400f620001308184846040805160208101859052908101839052606081018290524660808201523060a082015260009060c0016040516020818303038152906040528051906020012090509392505050565b6080523060c05261012052506200015392506200014d9150503390565b62000197565b60018055600480546001600160a01b039384166001600160a01b0319909116179055600380549190921661010002610100600160a81b03199091161790556200023c565b600080546001600160a01b038381166001600160a01b0319831681178455604051919092169283917f8be0079c531659141344cd1fd0a4f28419497f9722a3daafe3b4186f6b6457e09190a35050565b80516001600160a01b0381168114620001ff57600080fd5b919050565b600080604083850312156200021857600080fd5b6200022383620001e7565b91506200023360208401620001e7565b90509250929050565b60805160a05160c05160e051610100516101205161146b6200028c60003960006110e701526000611136015260006111110152600061106a01526000611094015260006110be015261146b6000f3fe60806040526004361061012a5760003560e01c8063715018a6116100ab5780639f181b5e1161006f5780639f181b5e14610317578063a10884031461032d578063a998faee1461034d578063dc9668a71461036d578063e62d64f61461038d578063f2fde38b146103a057600080fd5b8063715018a61461026557806381d579721461027a578063894ba833146102a75780638d5b87b6146102bc5780638da5cb5b146102f957600080fd5b80633408e470116100f25780633408e470146101d7578063367edd32146101ea5780633a1a9918146101ff5780635bf5d54c1461022f578063704665f31461024557600080fd5b80631278febf1461012f57806322f3e2d4146101585780632e1a7d4d1461018257806333862708146101a457806333b618af146101c4575b600080fd5b34801561013b57600080fd5b5061014560025481565b6040519081526020015b60405180910390f35b34801561016457600080fd5b506003546101729060ff1681565b604051901515815260200161014f565b34801561018e57600080fd5b506101a261019d3660046112a0565b6103c0565b005b3480156101b057600080fd5b506101a26101bf3660046112b9565b610474565b6101456101d23660046112e2565b6104c6565b3480156101e357600080fd5b5046610145565b3480156101f657600080fd5b506101a2610aba565b34801561020b57600080fd5b5061017261021a3660046112b9565b60086020526000908152604090205460ff1681565b34801561023b57600080fd5b5061014560055481565b34801561025157600080fd5b506101a26102603660046112b9565b610af3565b34801561027157600080fd5b506101a2610b3e565b34801561028657600080fd5b506101456102953660046112a0565b60076020526000908152604090205481565b3480156102b357600080fd5b506101a2610b74565b3480156102c857600080fd5b506003546102e19061010090046001600160a01b031681565b6040516001600160a01b03909116815260200161014f565b34801561030557600080fd5b506000546001600160a01b03166102e1565b34801561032357600080fd5b5061014560065481565b34801561033957600080fd5b506004546102e1906001600160a01b031681565b34801561035957600080fd5b506101a26103683660046112a0565b610baa565b34801561037957600080fd5b506101a261038836600461131d565b610bd9565b34801561039957600080fd5b5047610145565b3480156103ac57600080fd5b506101a26103bb3660046112b9565b610c17565b6000546001600160a01b031633146103f35760405162461bcd60e51b81526004016103ea9061133f565b60405180910390fd5b478111156104435760405162461bcd60e51b815260206004820152601e60248201527f496e73756666696369656e742066756e647320746f207769746864726177000060448201526064016103ea565b604051339082156108fc029083906000818181858888f19350505050158015610470573d6000803e3d6000fd5b5050565b6000546001600160a01b0316331461049e5760405162461bcd60e51b81526004016103ea9061133f565b600380546001600160a01b0390921661010002610100600160a81b0319909216919091179055565b60006002600154141561051b5760405162461bcd60e51b815260206004820152601f60248201527f5265656e7472616e637947756172643a207265656e7472616e742063616c6c0060448201526064016103ea565b600260015560035460ff166105985760405162461bcd60e51b815260206004820152603d60248201527f547279206167616e206c617465722c666f72206e6f7720636f6e74726163742060448201527f69732064697361626c65642062792041646d696e6973747261746f722100000060648201526084016103ea565b3360009081526008602052604090205460ff161561060f5760405162461bcd60e51b815260206004820152602e60248201527f557365722063616e2068617665206f6e6c79206f6e65206f6620746865206e6660448201526d3a1037b7103a3432903a37bbb2b960911b60648201526084016103ea565b600254600654106106755760405162461bcd60e51b815260206004820152602a60248201527f4d617820746f6b656e73206f6e207468697320746f7765722068617320616c7260448201526919591e481b5a5b9d195960b21b60648201526084016103ea565b6000600460009054906101000a90046001600160a01b03166001600160a01b0316634864d8d96040518163ffffffff1660e01b815260040160206040518083038186803b1580156106c557600080fd5b505afa1580156106d9573d6000803e3d6000fd5b505050506040513d601f19601f820116820180604052508101906106fd9190611374565b9050806005541461075a5760405162461bcd60e51b815260206004820152602160248201527f496e636f7272656374207374616765206f6e2070726f787920636f6e747261636044820152601d60fa1b60648201526084016103ea565b6000600460009054906101000a90046001600160a01b03166001600160a01b03166255b09e6040518163ffffffff1660e01b815260040160206040518083038186803b1580156107a957600080fd5b505afa1580156107bd573d6000803e3d6000fd5b505050506040513d601f19601f820116820180604052508101906107e1919061138d565b905080156108e05760048054600554600090815260076020526040808220549051632474521560e21b815293840152336024840152916001600160a01b03909116906391d148549060440160206040518083038186803b15801561084457600080fd5b505afa158015610858573d6000803e3d6000fd5b505050506040513d601f19601f8201168201806040525081019061087c919061138d565b9050806108de5760405162461bcd60e51b815260206004820152602a60248201527f596f7520646f206e6f74206861766520726f6c6520666f72207468652063757260448201526972656e7420737461676560b01b60648201526084016103ea565b505b6000600460009054906101000a90046001600160a01b03166001600160a01b031663707a73b16040518163ffffffff1660e01b815260040160206040518083038186803b15801561093057600080fd5b505afa158015610944573d6000803e3d6000fd5b505050506040513d601f19601f820116820180604052508101906109689190611374565b90508034146109b25760405162461bcd60e51b8152602060048201526016602482015275151a19481c1c9a58d9481a5cc81a5b98dbdc9c9958dd60521b60448201526064016103ea565b60006109bd86610cb2565b6003549091506001600160a01b038083166101009092041614610a185760405162461bcd60e51b815260206004820152601360248201527214da59db985d1d5c99481b9bdd081d985b1a59606a1b60448201526064016103ea565b60048054604051632bcf68bd60e21b81523392810192909252873560248301526001600160a01b03169063af3da2f490604401600060405180830381600087803b158015610a6557600080fd5b505af1158015610a79573d6000803e3d6000fd5b5050336000908152600860205260408120805460ff191660011790556006805493509150610aa6836113af565b909155505060018055505092359392505050565b6000546001600160a01b03163314610ae45760405162461bcd60e51b81526004016103ea9061133f565b6003805460ff19166001179055565b6000546001600160a01b03163314610b1d5760405162461bcd60e51b81526004016103ea9061133f565b6001600160a01b03166000908152600860205260409020805460ff19169055565b6000546001600160a01b03163314610b685760405162461bcd60e51b81526004016103ea9061133f565b610b726000610d12565b565b6000546001600160a01b03163314610b9e5760405162461bcd60e51b81526004016103ea9061133f565b6003805460ff19169055565b6000546001600160a01b03163314610bd45760405162461bcd60e51b81526004016103ea9061133f565b600655565b6000546001600160a01b03163314610c035760405162461bcd60e51b81526004016103ea9061133f565b600082815260076020526040902055600555565b6000546001600160a01b03163314610c415760405162461bcd60e51b81526004016103ea9061133f565b6001600160a01b038116610ca65760405162461bcd60e51b815260206004820152602660248201527f4f776e61626c653a206e6577206f776e657220697320746865207a65726f206160448201526564647265737360d01b60648201526084016103ea565b610caf81610d12565b50565b600080610cbe83610d62565b9050610d0b81610cd160208601866113d8565b8080601f016020809104026020016040519081016040528093929190818152602001838380828437600092019190915250610dc092505050565b9392505050565b600080546001600160a01b038381166001600160a01b0319831681178455604051919092169283917f8be0079c531659141344cd1fd0a4f28419497f9722a3daafe3b4186f6b6457e09190a35050565b604080517fc21f5387c8e80527a1e77947f7a2569fe2553bac17773866339010b053f86d026020820152823591810191909152600090610dba9060600160405160208183030381529060405280519060200120610de4565b92915050565b6000806000610dcf8585610e32565b91509150610ddc81610ea2565b509392505050565b6000610dba610df161105d565b8360405161190160f01b6020820152602281018390526042810182905260009060620160405160208183030381529060405280519060200120905092915050565b600080825160411415610e695760208301516040840151606085015160001a610e5d87828585611184565b94509450505050610e9b565b825160401415610e935760208301516040840151610e88868383611271565b935093505050610e9b565b506000905060025b9250929050565b6000816004811115610eb657610eb661141f565b1415610ebf5750565b6001816004811115610ed357610ed361141f565b1415610f215760405162461bcd60e51b815260206004820152601860248201527f45434453413a20696e76616c6964207369676e6174757265000000000000000060448201526064016103ea565b6002816004811115610f3557610f3561141f565b1415610f835760405162461bcd60e51b815260206004820152601f60248201527f45434453413a20696e76616c6964207369676e6174757265206c656e6774680060448201526064016103ea565b6003816004811115610f9757610f9761141f565b1415610ff05760405162461bcd60e51b815260206004820152602260248201527f45434453413a20696e76616c6964207369676e6174757265202773272076616c604482015261756560f01b60648201526084016103ea565b60048160048111156110045761100461141f565b1415610caf5760405162461bcd60e51b815260206004820152602260248201527f45434453413a20696e76616c6964207369676e6174757265202776272076616c604482015261756560f01b60648201526084016103ea565b6000306001600160a01b037f0000000000000000000000000000000000000000000000000000000000000000161480156110b657507f000000000000000000000000000000000000000000000000000000000000000046145b156110e057507f000000000000000000000000000000000000000000000000000000000000000090565b50604080517f00000000000000000000000000000000000000000000000000000000000000006020808301919091527f0000000000000000000000000000000000000000000000000000000000000000828401527f000000000000000000000000000000000000000000000000000000000000000060608301524660808301523060a0808401919091528351808403909101815260c0909201909252805191012090565b6000807f7fffffffffffffffffffffffffffffff5d576e7357a4501ddfe92f46681b20a08311156111bb5750600090506003611268565b8460ff16601b141580156111d357508460ff16601c14155b156111e45750600090506004611268565b6040805160008082526020820180845289905260ff881692820192909252606081018690526080810185905260019060a0016020604051602081039080840390855afa158015611238573d6000803e3d6000fd5b5050604051601f1901519150506001600160a01b03811661126157600060019250925050611268565b9150600090505b94509492505050565b6000806001600160ff1b03831660ff84901c601b0161129287828885611184565b935093505050935093915050565b6000602082840312156112b257600080fd5b5035919050565b6000602082840312156112cb57600080fd5b81356001600160a01b0381168114610d0b57600080fd5b6000602082840312156112f457600080fd5b813567ffffffffffffffff81111561130b57600080fd5b820160408185031215610d0b57600080fd5b6000806040838503121561133057600080fd5b50508035926020909101359150565b6020808252818101527f4f776e61626c653a2063616c6c6572206973206e6f7420746865206f776e6572604082015260600190565b60006020828403121561138657600080fd5b5051919050565b60006020828403121561139f57600080fd5b81518015158114610d0b57600080fd5b60006000198214156113d157634e487b7160e01b600052601160045260246000fd5b5060010190565b6000808335601e198436030181126113ef57600080fd5b83018035915067ffffffffffffffff82111561140a57600080fd5b602001915036819003821315610e9b57600080fd5b634e487b7160e01b600052602160045260246000fdfea264697066735822122001320d2ffd94125bc0096a20b023dc0729560a0bfc0734ba2409282eacec900964736f6c63430008090033",
  "linkReferences": {},
  "deployedLinkReferences": {}
}